{
  "abi": [
    {
      "type": "constructor",
      "inputs": [
        {
          "name": "name_",
          "type": "string",
          "internalType": "string"
        },
        {
          "name": "symbol_",
          "type": "string",
          "internalType": "string"
        },
        {
          "name": "baseURI_",
          "type": "string",
          "internalType": "string"
        },
        {
          "name": "relayer_",
          "type": "address",
          "internalType": "address"
        }
      ],
      "stateMutability": "nonpayable"
    },
    {
      "type": "function",
      "name": "acceptOwnership",
      "inputs": [],
      "outputs": [],
      "stateMutability": "nonpayable"
    },
    {
      "type": "function",
      "name": "approve",
      "inputs": [
        {
          "name": "to",
          "type": "address",
          "internalType": "address"
        },
        {
          "name": "tokenId",
          "type": "uint256",
          "internalType": "uint256"
        }
      ],
      "outputs": [],
      "stateMutability": "nonpayable"
    },
    {
      "type": "function",
      "name": "balanceOf",
      "inputs": [
        {
          "name": "owner",
          "type": "address",
          "internalType": "address"
        }
      ],
      "outputs": [
        {
          "name": "",
          "type": "uint256",
          "internalType": "uint256"
        }
      ],
      "stateMutability": "view"
    },
    {
      "type": "function",
      "name": "campaignMintCount",
      "inputs": [
        {
          "name": "",
          "type": "uint256",
          "internalType": "uint256"
        }
      ],
      "outputs": [
        {
          "name": "",
          "type": "uint256",
          "internalType": "uint256"
        }
      ],
      "stateMutability": "view"
    },
    {
      "type": "function",
      "name": "campaigns",
      "inputs": [
        {
          "name": "",
          "type": "uint256",
          "internalType": "uint256"
        }
      ],
      "outputs": [
        {
          "name": "merkleRoot",
          "type": "bytes32",
          "internalType": "bytes32"
        },
        {
          "name": "startTime",
          "type": "uint256",
          "internalType": "uint256"
        },
        {
          "name": "endTime",
          "type": "uint256",
          "internalType": "uint256"
        },
        {
          "name": "maxMints",
          "type": "uint256",
          "internalType": "uint256"
        },
        {
          "name": "isActive",
          "type": "bool",
          "internalType": "bool"
        }
      ],
      "stateMutability": "view"
    },
    {
      "type": "function",
      "name": "canMint",
      "inputs": [
        {
          "name": "attendee",
          "type": "address",
          "internalType": "address"
        },
        {
          "name": "campaignId",
          "type": "uint256",
          "internalType": "uint256"
        }
      ],
      "outputs": [
        {
          "name": "",
          "type": "bool",
          "internalType": "bool"
        }
      ],
      "stateMutability": "view"
    },
    {
      "type": "function",
      "name": "createCampaign",
      "inputs": [
        {
          "name": "campaignId",
          "type": "uint256",
          "internalType": "uint256"
        },
        {
          "name": "merkleRoot",
          "type": "bytes32",
          "internalType": "bytes32"
        },
        {
          "name": "startTime",
          "type": "uint256",
          "internalType": "uint256"
        },
        {
          "name": "endTime",
          "type": "uint256",
          "internalType": "uint256"
        },
        {
          "name": "maxMints",
          "type": "uint256",
          "internalType": "uint256"
        }
      ],
      "outputs": [],
      "stateMutability": "nonpayable"
    },
    {
      "type": "function",
      "name": "deleteCampaign",
      "inputs": [
        {
          "name": "campaignId",
          "type": "uint256",
          "internalType": "uint256"
        }
      ],
      "outputs": [],
      "stateMutability": "nonpayable"
    },
    {
      "type": "function",
      "name": "getApproved",
      "inputs": [
        {
          "name": "tokenId",
          "type": "uint256",
          "internalType": "uint256"
        }
      ],
      "outputs": [
        {
          "name": "",
          "type": "address",
          "internalType": "address"
        }
      ],
      "stateMutability": "view"
    },
    {
      "type": "function",
      "name": "getCampaign",
      "inputs": [
        {
          "name": "campaignId",
          "type": "uint256",
          "internalType": "uint256"
        }
      ],
      "outputs": [
        {
          "name": "",
          "type": "tuple",
          "internalType": "struct EventCertificate.MintingCampaign",
          "components": [
            {
              "name": "merkleRoot",
              "type": "bytes32",
              "internalType": "bytes32"
            },
            {
              "name": "startTime",
              "type": "uint256",
              "internalType": "uint256"
            },
            {
              "name": "endTime",
              "type": "uint256",
              "internalType": "uint256"
            },
            {
              "name": "maxMints",
              "type": "uint256",
              "internalType": "uint256"
            },
            {
              "name": "isActive",
              "type": "bool",
              "internalType": "bool"
            }
          ]
        }
      ],
      "stateMutability": "view"
    },
    {
      "type": "function",
      "name": "hasMintedInCampaign",
      "inputs": [
        {
          "name": "",
          "type": "uint256",
          "internalType": "uint256"
        },
        {
          "name": "",
          "type": "address",
          "internalType": "address"
        }
      ],
      "outputs": [
        {
          "name": "",
          "type": "bool",
          "internalType": "bool"
        }
      ],
      "stateMutability": "view"
    },
    {
      "type": "function",
      "name": "isApprovedForAll",
      "inputs": [
        {
          "name": "owner",
          "type": "address",
          "internalType": "address"
        },
        {
          "name": "operator",
          "type": "address",
          "internalType": "address"
        }
      ],
      "outputs": [
        {
          "name": "",
          "type": "bool",
          "internalType": "bool"
        }
      ],
      "stateMutability": "view"
    },
    {
      "type": "function",
      "name": "mint",
      "inputs": [
        {
          "name": "attendee",
          "type": "address",
          "internalType": "address"
        },
        {
          "name": "campaignId",
          "type": "uint256",
          "internalType": "uint256"
        },
        {
          "name": "merkleProof",
          "type": "bytes32[]",
          "internalType": "bytes32[]"
        }
      ],
      "outputs": [],
      "stateMutability": "nonpayable"
    },
    {
      "type": "function",
      "name": "name",
      "inputs": [],
      "outputs": [
        {
          "name": "",
          "type": "string",
          "internalType": "string"
        }
      ],
      "stateMutability": "view"
    },
    {
      "type": "function",
      "name": "nextTokenId",
      "inputs": [],
      "outputs": [
        {
          "name": "",
          "type": "uint256",
          "internalType": "uint256"
        }
      ],
      "stateMutability": "view"
    },
    {
      "type": "function",
      "name": "owner",
      "inputs": [],
      "outputs": [
        {
          "name": "",
          "type": "address",
          "internalType": "address"
        }
      ],
      "stateMutability": "view"
    },
    {
      "type": "function",
      "name": "ownerOf",
      "inputs": [
        {
          "name": "tokenId",
          "type": "uint256",
          "internalType": "uint256"
        }
      ],
      "outputs": [
        {
          "name": "",
          "type": "address",
          "internalType": "address"
        }
      ],
      "stateMutability": "view"
    },
    {
      "type": "function",
      "name": "pause",
      "inputs": [],
      "outputs": [],
      "stateMutability": "nonpayable"
    },
    {
      "type": "function",
      "name": "paused",
      "inputs": [],
      "outputs": [
        {
          "name": "",
          "type": "bool",
          "internalType": "bool"
        }
      ],
      "stateMutability": "view"
    },
    {
      "type": "function",
      "name": "pendingOwner",
      "inputs": [],
      "outputs": [
        {
          "name": "",
          "type": "address",
          "internalType": "address"
        }
      ],
      "stateMutability": "view"
    },
    {
      "type": "function",
      "name": "relayer",
      "inputs": [],
      "outputs": [
        {
          "name": "",
          "type": "address",
          "internalType": "address"
        }
      ],
      "stateMutability": "view"
    },
    {
      "type": "function",
      "name": "renounceOwnership",
      "inputs": [],
      "outputs": [],
      "stateMutability": "nonpayable"
    },
    {
      "type": "function",
      "name": "safeTransferFrom",
      "inputs": [
        {
          "name": "from",
          "type": "address",
          "internalType": "address"
        },
        {
          "name": "to",
          "type": "address",
          "internalType": "address"
        },
        {
          "name": "tokenId",
          "type": "uint256",
          "internalType": "uint256"
        }
      ],
      "outputs": [],
      "stateMutability": "nonpayable"
    },
    {
      "type": "function",
      "name": "safeTransferFrom",
      "inputs": [
        {
          "name": "from",
          "type": "address",
          "internalType": "address"
        },
        {
          "name": "to",
          "type": "address",
          "internalType": "address"
        },
        {
          "name": "tokenId",
          "type": "uint256",
          "internalType": "uint256"
        },
        {
          "name": "data",
          "type": "bytes",
          "internalType": "bytes"
        }
      ],
      "outputs": [],
      "stateMutability": "nonpayable"
    },
    {
      "type": "function",
      "name": "setApprovalForAll",
      "inputs": [
        {
          "name": "operator",
          "type": "address",
          "internalType": "address"
        },
        {
          "name": "approved",
          "type": "bool",
          "internalType": "bool"
        }
      ],
      "outputs": [],
      "stateMutability": "nonpayable"
    },
    {
      "type": "function",
      "name": "setBaseURI",
      "inputs": [
        {
          "name": "newBaseURI",
          "type": "string",
          "internalType": "string"
        }
      ],
      "outputs": [],
      "stateMutability": "nonpayable"
    },
    {
      "type": "function",
      "name": "setCampaignActiveStatus",
      "inputs": [
        {
          "name": "campaignId",
          "type": "uint256",
          "internalType": "uint256"
        },
        {
          "name": "isActive",
          "type": "bool",
          "internalType": "bool"
        }
      ],
      "outputs": [],
      "stateMutability": "nonpayable"
    },
    {
      "type": "function",
      "name": "supportsInterface",
      "inputs": [
        {
          "name": "interfaceId",
          "type": "bytes4",
          "internalType": "bytes4"
        }
      ],
      "outputs": [
        {
          "name": "",
          "type": "bool",
          "internalType": "bool"
        }
      ],
      "stateMutability": "view"
    },
    {
      "type": "function",
      "name": "symbol",
      "inputs": [],
      "outputs": [
        {
          "name": "",
          "type": "string",
          "internalType": "string"
        }
      ],
      "stateMutability": "view"
    },
    {
      "type": "function",
      "name": "tokenURI",
      "inputs": [
        {
          "name": "tokenId",
          "type": "uint256",
          "internalType": "uint256"
        }
      ],
      "outputs": [
        {
          "name": "",
          "type": "string",
          "internalType": "string"
        }
      ],
      "stateMutability": "view"
    },
    {
      "type": "function",
      "name": "transferFrom",
      "inputs": [
        {
          "name": "from",
          "type": "address",
          "internalType": "address"
        },
        {
          "name": "to",
          "type": "address",
          "internalType": "address"
        },
        {
          "name": "tokenId",
          "type": "uint256",
          "internalType": "uint256"
        }
      ],
      "outputs": [],
      "stateMutability": "nonpayable"
    },
    {
      "type": "function",
      "name": "transferOwnership",
      "inputs": [
        {
          "name": "newOwner",
          "type": "address",
          "internalType": "address"
        }
      ],
      "outputs": [],
      "stateMutability": "nonpayable"
    },
    {
      "type": "function",
      "name": "unpause",
      "inputs": [],
      "outputs": [],
      "stateMutability": "nonpayable"
    },
    {
      "type": "function",
      "name": "updateCampaignBeforeStart",
      "inputs": [
        {
          "name": "campaignId",
          "type": "uint256",
          "internalType": "uint256"
        },
        {
          "name": "newMerkleRoot",
          "type": "bytes32",
          "internalType": "bytes32"
        },
        {
          "name": "newStartTime",
          "type": "uint256",
          "internalType": "uint256"
        },
        {
          "name": "newEndTime",
          "type": "uint256",
          "internalType": "uint256"
        }
      ],
      "outputs": [],
      "stateMutability": "nonpayable"
    },
    {
      "type": "function",
      "name": "updateRelayer",
      "inputs": [
        {
          "name": "newRelayer",
          "type": "address",
          "internalType": "address"
        }
      ],
      "outputs": [],
      "stateMutability": "nonpayable"
    },
    {
      "type": "event",
      "name": "Approval",
      "inputs": [
        {
          "name": "owner",
          "type": "address",
          "indexed": true,
          "internalType": "address"
        },
        {
          "name": "approved",
          "type": "address",
          "indexed": true,
          "internalType": "address"
        },
        {
          "name": "tokenId",
          "type": "uint256",
          "indexed": true,
          "internalType": "uint256"
        }
      ],
      "anonymous": false
    },
    {
      "type": "event",
      "name": "ApprovalForAll",
      "inputs": [
        {
          "name": "owner",
          "type": "address",
          "indexed": true,
          "internalType": "address"
        },
        {
          "name": "operator",
          "type": "address",
          "indexed": true,
          "internalType": "address"
        },
        {
          "name": "approved",
          "type": "bool",
          "indexed": false,
          "internalType": "bool"
        }
      ],
      "anonymous": false
    },
    {
      "type": "event",
      "name": "BaseURIUpdated",
      "inputs": [
        {
          "name": "newBaseURI",
          "type": "string",
          "indexed": false,
          "internalType": "string"
        }
      ],
      "anonymous": false
    },
    {
      "type": "event",
      "name": "CampaignActiveStatusChanged",
      "inputs": [
        {
          "name": "campaignId",
          "type": "uint256",
          "indexed": true,
          "internalType": "uint256"
        },
        {
          "name": "isActive",
          "type": "bool",
          "indexed": false,
          "internalType": "bool"
        }
      ],
      "anonymous": false
    },
    {
      "type": "event",
      "name": "CampaignCreated",
      "inputs": [
        {
          "name": "campaignId",
          "type": "uint256",
          "indexed": true,
          "internalType": "uint256"
        },
        {
          "name": "merkleRoot",
          "type": "bytes32",
          "indexed": false,
          "internalType": "bytes32"
        },
        {
          "name": "startTime",
          "type": "uint256",
          "indexed": false,
          "internalType": "uint256"
        },
        {
          "name": "endTime",
          "type": "uint256",
          "indexed": false,
          "internalType": "uint256"
        },
        {
          "name": "maxMints",
          "type": "uint256",
          "indexed": false,
          "internalType": "uint256"
        }
      ],
      "anonymous": false
    },
    {
      "type": "event",
      "name": "CampaignDeleted",
      "inputs": [
        {
          "name": "campaignId",
          "type": "uint256",
          "indexed": true,
          "internalType": "uint256"
        }
      ],
      "anonymous": false
    },
    {
      "type": "event",
      "name": "CampaignUpdated",
      "inputs": [
        {
          "name": "campaignId",
          "type": "uint256",
          "indexed": true,
          "internalType": "uint256"
        },
        {
          "name": "newMerkleRoot",
          "type": "bytes32",
          "indexed": false,
          "internalType": "bytes32"
        },
        {
          "name": "newStartTime",
          "type": "uint256",
          "indexed": false,
          "internalType": "uint256"
        },
        {
          "name": "newEndTime",
          "type": "uint256",
          "indexed": false,
          "internalType": "uint256"
        }
      ],
      "anonymous": false
    },
    {
      "type": "event",
      "name": "CertificateMinted",
      "inputs": [
        {
          "name": "attendee",
          "type": "address",
          "indexed": true,
          "internalType": "address"
        },
        {
          "name": "tokenId",
          "type": "uint256",
          "indexed": true,
          "internalType": "uint256"
        },
        {
          "name": "campaignId",
          "type": "uint256",
          "indexed": true,
          "internalType": "uint256"
        }
      ],
      "anonymous": false
    },
    {
      "type": "event",
      "name": "OwnershipTransferStarted",
      "inputs": [
        {
          "name": "previousOwner",
          "type": "address",
          "indexed": true,
          "internalType": "address"
        },
        {
          "name": "newOwner",
          "type": "address",
          "indexed": true,
          "internalType": "address"
        }
      ],
      "anonymous": false
    },
    {
      "type": "event",
      "name": "OwnershipTransferred",
      "inputs": [
        {
          "name": "previousOwner",
          "type": "address",
          "indexed": true,
          "internalType": "address"
        },
        {
          "name": "newOwner",
          "type": "address",
          "indexed": true,
          "internalType": "address"
        }
      ],
      "anonymous": false
    },
    {
      "type": "event",
      "name": "Paused",
      "inputs": [
        {
          "name": "account",
          "type": "address",
          "indexed": false,
          "internalType": "address"
        }
      ],
      "anonymous": false
    },
    {
      "type": "event",
      "name": "RelayerUpdated",
      "inputs": [
        {
          "name": "newRelayer",
          "type": "address",
          "indexed": false,
          "internalType": "address"
        }
      ],
      "anonymous": false
    },
    {
      "type": "event",
      "name": "Transfer",
      "inputs": [
        {
          "name": "from",
          "type": "address",
          "indexed": true,
          "internalType": "address"
        },
        {
          "name": "to",
          "type": "address",
          "indexed": true,
          "internalType": "address"
        },
        {
          "name": "tokenId",
          "type": "uint256",
          "indexed": true,
          "internalType": "uint256"
        }
      ],
      "anonymous": false
    },
    {
      "type": "event",
      "name": "Unpaused",
      "inputs": [
        {
          "name": "account",
          "type": "address",
          "indexed": false,
          "internalType": "address"
        }
      ],
      "anonymous": false
    },
    {
      "type": "error",
      "name": "AlreadyMinted",
      "inputs": []
    },
    {
      "type": "error",
      "name": "CampaignAlreadyExists",
      "inputs": []
    },
    {
      "type": "error",
      "name": "CampaignDoesNotExist",
      "inputs": []
    },
    {
      "type": "error",
      "name": "CampaignDurationTooLong",
      "inputs": []
    },
    {
      "type": "error",
      "name": "CampaignExpired",
      "inputs": []
    },
    {
      "type": "error",
      "name": "CampaignHasMints",
      "inputs": []
    },
    {
      "type": "error",
      "name": "CampaignMustStartInFuture",
      "inputs": []
    },
    {
      "type": "error",
      "name": "CampaignNotActive",
      "inputs": []
    },
    {
      "type": "error",
      "name": "CannotModifyStartedCampaign",
      "inputs": []
    },
    {
      "type": "error",
      "name": "ERC721IncorrectOwner",
      "inputs": [
        {
          "name": "sender",
          "type": "address",
          "internalType": "address"
        },
        {
          "name": "tokenId",
          "type": "uint256",
          "internalType": "uint256"
        },
        {
          "name": "owner",
          "type": "address",
          "internalType": "address"
        }
      ]
    },
    {
      "type": "error",
      "name": "ERC721InsufficientApproval",
      "inputs": [
        {
          "name": "operator",
          "type": "address",
          "internalType": "address"
        },
        {
          "name": "tokenId",
          "type": "uint256",
          "internalType": "uint256"
        }
      ]
    },
    {
      "type": "error",
      "name": "ERC721InvalidApprover",
      "inputs": [
        {
          "name": "approver",
          "type": "address",
          "internalType": "address"
        }
      ]
    },
    {
      "type": "error",
      "name": "ERC721InvalidOperator",
      "inputs": [
        {
          "name": "operator",
          "type": "address",
          "internalType": "address"
        }
      ]
    },
    {
      "type": "error",
      "name": "ERC721InvalidOwner",
      "inputs": [
        {
          "name": "owner",
          "type": "address",
          "internalType": "address"
        }
      ]
    },
    {
      "type": "error",
      "name": "ERC721InvalidReceiver",
      "inputs": [
        {
          "name": "receiver",
          "type": "address",
          "internalType": "address"
        }
      ]
    },
    {
      "type": "error",
      "name": "ERC721InvalidSender",
      "inputs": [
        {
          "name": "sender",
          "type": "address",
          "internalType": "address"
        }
      ]
    },
    {
      "type": "error",
      "name": "ERC721NonexistentToken",
      "inputs": [
        {
          "name": "tokenId",
          "type": "uint256",
          "internalType": "uint256"
        }
      ]
    },
    {
      "type": "error",
      "name": "EmptyMerkleRoot",
      "inputs": []
    },
    {
      "type": "error",
      "name": "EnforcedPause",
      "inputs": []
    },
    {
      "type": "error",
      "name": "ExpectedPause",
      "inputs": []
    },
    {
      "type": "error",
      "name": "InvalidCampaignTimes",
      "inputs": []
    },
    {
      "type": "error",
      "name": "InvalidInput",
      "inputs": []
    },
    {
      "type": "error",
      "name": "InvalidProof",
      "inputs": []
    },
    {
      "type": "error",
      "name": "MintLimitReached",
      "inputs": []
    },
    {
      "type": "error",
      "name": "MintingWindowNotOpen",
      "inputs": []
    },
    {
      "type": "error",
      "name": "NonExistentToken",
      "inputs": []
    },
    {
      "type": "error",
      "name": "NonTransferable",
      "inputs": []
    },
    {
      "type": "error",
      "name": "NotAuthorizedRelayer",
      "inputs": []
    },
    {
      "type": "error",
      "name": "OwnableInvalidOwner",
      "inputs": [
        {
          "name": "owner",
          "type": "address",
          "internalType": "address"
        }
      ]
    },
    {
      "type": "error",
      "name": "OwnableUnauthorizedAccount",
      "inputs": [
        {
          "name": "account",
          "type": "address",
          "internalType": "address"
        }
      ]
    },
    {
      "type": "error",
      "name": "ProofTooLong",
      "inputs": []
    },
    {
      "type": "error",
      "name": "ZeroAddress",
      "inputs": []
    }
  ],
  "bytecode": {
    "object": "0x60806040526001600d55348015610014575f5ffd5b506040516148a23803806148a283398181016040528101906100369190610489565b338484815f90816100479190610751565b5080600190816100579190610751565b5050505f73ffffffffffffffffffffffffffffffffffffffff168173ffffffffffffffffffffffffffffffffffffffff16036100ca575f6040517f1e4fbdf70000000000000000000000000000000000000000000000000000000081526004016100c1919061082f565b60405180910390fd5b6100d9816101e960201b60201c565b505f845114806100e957505f8351145b806100f457505f8251145b1561012b576040517fb4fa3fb300000000000000000000000000000000000000000000000000000000815260040160405180910390fd5b5f73ffffffffffffffffffffffffffffffffffffffff168173ffffffffffffffffffffffffffffffffffffffff1603610190576040517fd92e233d00000000000000000000000000000000000000000000000000000000815260040160405180910390fd5b816008908161019f9190610751565b508060095f6101000a81548173ffffffffffffffffffffffffffffffffffffffff021916908373ffffffffffffffffffffffffffffffffffffffff16021790555050505050610848565b60075f6101000a81549073ffffffffffffffffffffffffffffffffffffffff021916905561021c8161021f60201b60201c565b50565b5f60065f9054906101000a900473ffffffffffffffffffffffffffffffffffffffff1690508160065f6101000a81548173ffffffffffffffffffffffffffffffffffffffff021916908373ffffffffffffffffffffffffffffffffffffffff1602179055508173ffffffffffffffffffffffffffffffffffffffff168173ffffffffffffffffffffffffffffffffffffffff167f8be0079c531659141344cd1fd0a4f28419497f9722a3daafe3b4186f6b6457e060405160405180910390a35050565b5f604051905090565b5f5ffd5b5f5ffd5b5f5ffd5b5f5ffd5b5f601f19601f8301169050919050565b7f4e487b71000000000000000000000000000000000000000000000000000000005f52604160045260245ffd5b610341826102fb565b810181811067ffffffffffffffff821117156103605761035f61030b565b5b80604052505050565b5f6103726102e2565b905061037e8282610338565b919050565b5f67ffffffffffffffff82111561039d5761039c61030b565b5b6103a6826102fb565b9050602081019050919050565b8281835e5f83830152505050565b5f6103d36103ce84610383565b610369565b9050828152602081018484840111156103ef576103ee6102f7565b5b6103fa8482856103b3565b509392505050565b5f82601f830112610416576104156102f3565b5b81516104268482602086016103c1565b91505092915050565b5f73ffffffffffffffffffffffffffffffffffffffff82169050919050565b5f6104588261042f565b9050919050565b6104688161044e565b8114610472575f5ffd5b50565b5f815190506104838161045f565b92915050565b5f5f5f5f608085870312156104a1576104a06102eb565b5b5f85015167ffffffffffffffff8111156104be576104bd6102ef565b5b6104ca87828801610402565b945050602085015167ffffffffffffffff8111156104eb576104ea6102ef565b5b6104f787828801610402565b935050604085015167ffffffffffffffff811115610518576105176102ef565b5b61052487828801610402565b925050606061053587828801610475565b91505092959194509250565b5f81519050919050565b7f4e487b71000000000000000000000000000000000000000000000000000000005f52602260045260245ffd5b5f600282049050600182168061058f57607f821691505b6020821081036105a2576105a161054b565b5b50919050565b5f819050815f5260205f209050919050565b5f6020601f8301049050919050565b5f82821b905092915050565b5f600883026106047fffffffffffffffffffffffffffffffffffffffffffffffffffffffffffffffff826105c9565b61060e86836105c9565b95508019841693508086168417925050509392505050565b5f819050919050565b5f819050919050565b5f61065261064d61064884610626565b61062f565b610626565b9050919050565b5f819050919050565b61066b83610638565b61067f61067782610659565b8484546105d5565b825550505050565b5f5f905090565b610696610687565b6106a1818484610662565b505050565b5b818110156106c4576106b95f8261068e565b6001810190506106a7565b5050565b601f821115610709576106da816105a8565b6106e3846105ba565b810160208510156106f2578190505b6107066106fe856105ba565b8301826106a6565b50505b505050565b5f82821c905092915050565b5f6107295f198460080261070e565b1980831691505092915050565b5f610741838361071a565b9150826002028217905092915050565b61075a82610541565b67ffffffffffffffff8111156107735761077261030b565b5b61077d8254610578565b6107888282856106c8565b5f60209050601f8311600181146107b9575f84156107a7578287015190505b6107b18582610736565b865550610818565b601f1984166107c7866105a8565b5f5b828110156107ee578489015182556001820191506020850194506020810190506107c9565b8683101561080b5784890151610807601f89168261071a565b8355505b6001600288020188555050505b505050505050565b6108298161044e565b82525050565b5f6020820190506108425f830184610820565b92915050565b61404d806108555f395ff3fe608060405234801561000f575f5ffd5b506004361061020f575f3560e01c8063715018a611610123578063a22cb465116100ab578063e30c39781161007a578063e30c3978146105c3578063e8149106146105e1578063e985e9c514610611578063f0ec3d3a14610641578063f2fde38b146106715761020f565b8063a22cb4651461053f578063b4e029331461055b578063b88d4fde14610577578063c87b56dd146105935761020f565b80638406c079116100f25780638406c079146104bf5780638456cb59146104dd5780638da5cb5b146104e75780638f83ab131461050557806395d89b41146105215761020f565b8063715018a61461047157806375794a3c1461047b578063759701931461049957806379ba5097146104b55761020f565b806323b872dd116101a657806355f804b31161017557806355f804b3146103bb5780635c975abb146103d75780636352211e146103f5578063641ce1401461042557806370a08231146104415761020f565b806323b872dd146103495780633f4ba83a1461036557806342842e0e1461036f5780635598f8cc1461038b5761020f565b8063095ea7b3116101e2578063095ea7b3146102ad5780630d5e34a4146102c9578063141961bc146102f957806315b3fc591461032d5761020f565b806301ffc9a71461021357806302530b851461024357806306fdde031461025f578063081812fc1461027d575b5f5ffd5b61022d60048036038101906102289190613008565b61068d565b60405161023a919061304d565b60405180910390f35b61025d600480360381019061025891906130c3565b61076e565b005b610267610865565b6040516102749190613171565b60405180910390f35b61029760048036038101906102929190613191565b6108f4565b6040516102a491906131fb565b60405180910390f35b6102c760048036038101906102c2919061323e565b61090f565b005b6102e360048036038101906102de919061323e565b610925565b6040516102f0919061304d565b60405180910390f35b610313600480360381019061030e9190613191565b610a24565b6040516103249594939291906132a3565b60405180910390f35b6103476004803603810190610342919061331e565b610a62565b005b610363600480360381019061035e9190613395565b610c76565b005b61036d610d75565b005b61038960048036038101906103849190613395565b610d87565b005b6103a560048036038101906103a09190613191565b610da6565b6040516103b29190613478565b60405180910390f35b6103d560048036038101906103d091906134f2565b610e12565b005b6103df610ea5565b6040516103ec919061304d565b60405180910390f35b61040f600480360381019061040a9190613191565b610ebb565b60405161041c91906131fb565b60405180910390f35b61043f600480360381019061043a9190613592565b610ecc565b005b61045b60048036038101906104569190613603565b611368565b604051610468919061362e565b60405180910390f35b61047961141e565b005b610483611431565b604051610490919061362e565b60405180910390f35b6104b360048036038101906104ae9190613191565b61143a565b005b6104bd6115d7565b005b6104c7611665565b6040516104d491906131fb565b60405180910390f35b6104e561168a565b005b6104ef61169c565b6040516104fc91906131fb565b60405180910390f35b61051f600480360381019061051a9190613603565b6116c4565b005b6105296117ab565b6040516105369190613171565b60405180910390f35b61055960048036038101906105549190613647565b61183b565b005b61057560048036038101906105709190613685565b611851565b005b610591600480360381019061058c9190613811565b611a3c565b005b6105ad60048036038101906105a89190613191565b611a61565b6040516105ba9190613171565b60405180910390f35b6105cb611b12565b6040516105d891906131fb565b60405180910390f35b6105fb60048036038101906105f69190613191565b611b3a565b604051610608919061362e565b60405180910390f35b61062b60048036038101906106269190613891565b611b4f565b604051610638919061304d565b60405180910390f35b61065b600480360381019061065691906138cf565b611bdd565b604051610668919061304d565b60405180910390f35b61068b60048036038101906106869190613603565b611c07565b005b5f7f80ac58cd000000000000000000000000000000000000000000000000000000007bffffffffffffffffffffffffffffffffffffffffffffffffffffffff1916827bffffffffffffffffffffffffffffffffffffffffffffffffffffffff1916148061075757507f5b5e139f000000000000000000000000000000000000000000000000000000007bffffffffffffffffffffffffffffffffffffffffffffffffffffffff1916827bffffffffffffffffffffffffffffffffffffffffffffffffffffffff1916145b80610767575061076682611cb3565b5b9050919050565b610776611d1c565b5f600a5f8481526020019081526020015f2090505f5f1b815f0154036107c8576040517f9b35ed3b00000000000000000000000000000000000000000000000000000000815260040160405180910390fd5b811561080d57806002015442111561080c576040517f8320b48300000000000000000000000000000000000000000000000000000000815260040160405180910390fd5b5b81816004015f6101000a81548160ff021916908315150217905550827ffc42640a14b9f8101e491ec51441d4d19e5eed2ca4f6c9290c45565e991d5c7a83604051610858919061304d565b60405180910390a2505050565b60605f80546108739061393a565b80601f016020809104026020016040519081016040528092919081815260200182805461089f9061393a565b80156108ea5780601f106108c1576101008083540402835291602001916108ea565b820191905f5260205f20905b8154815290600101906020018083116108cd57829003601f168201915b5050505050905090565b5f6108fe82611da3565b5061090882611e29565b9050919050565b610921828261091c611e62565b611e69565b5050565b5f5f600a5f8481526020019081526020015f209050806004015f9054906101000a900460ff16158061095b57505f5f1b815f0154145b15610969575f915050610a1e565b806001015442108061097e5750806002015442115b1561098c575f915050610a1e565b600b5f8481526020019081526020015f205f8573ffffffffffffffffffffffffffffffffffffffff1673ffffffffffffffffffffffffffffffffffffffff1681526020019081526020015f205f9054906101000a900460ff16156109f3575f915050610a1e565b8060030154600c5f8581526020019081526020015f205410610a18575f915050610a1e565b60019150505b92915050565b600a602052805f5260405f205f91509050805f015490806001015490806002015490806003015490806004015f9054906101000a900460ff16905085565b610a6a611d1c565b5f5f1b600a5f8781526020019081526020015f205f015414610ab8576040517f7e31d8a300000000000000000000000000000000000000000000000000000000815260040160405180910390fd5b42831015610af2576040517f20f18ff300000000000000000000000000000000000000000000000000000000815260040160405180910390fd5b818310610b2b576040517ffece067800000000000000000000000000000000000000000000000000000000815260040160405180910390fd5b6301e133808383610b3c9190613997565b1115610b74576040517fa7b3eca400000000000000000000000000000000000000000000000000000000815260040160405180910390fd5b5f5f1b8403610baf576040517f85ac2b9900000000000000000000000000000000000000000000000000000000815260040160405180910390fd5b6040518060a001604052808581526020018481526020018381526020018281526020015f1515815250600a5f8781526020019081526020015f205f820151815f01556020820151816001015560408201518160020155606082015181600301556080820151816004015f6101000a81548160ff021916908315150217905550905050847f6fe5ba4a9baaf07ebdfd5b32c55db5953828720e9a870c3ba644cc06155ed0ef85858585604051610c6794939291906139ca565b60405180910390a25050505050565b5f73ffffffffffffffffffffffffffffffffffffffff168273ffffffffffffffffffffffffffffffffffffffff1603610ce6575f6040517f64a0ae92000000000000000000000000000000000000000000000000000000008152600401610cdd91906131fb565b60405180910390fd5b5f610cf98383610cf4611e62565b611e7b565b90508373ffffffffffffffffffffffffffffffffffffffff168173ffffffffffffffffffffffffffffffffffffffff1614610d6f578382826040517f64283d7b000000000000000000000000000000000000000000000000000000008152600401610d6693929190613a0d565b60405180910390fd5b50505050565b610d7d611d1c565b610d85611f3c565b565b610da183838360405180602001604052805f815250611a3c565b505050565b610dae612f76565b600a5f8381526020019081526020015f206040518060a00160405290815f8201548152602001600182015481526020016002820154815260200160038201548152602001600482015f9054906101000a900460ff1615151515815250509050919050565b610e1a611d1c565b5f8282905003610e56576040517fb4fa3fb300000000000000000000000000000000000000000000000000000000815260040160405180910390fd5b818160089182610e67929190613bec565b507f6741b2fc379fad678116fe3d4d4b9a1a184ab53ba36b86ad0fa66340b1ab41ad8282604051610e99929190613ce5565b60405180910390a15050565b5f600760149054906101000a900460ff16905090565b5f610ec582611da3565b9050919050565b610ed4611f9e565b5f73ffffffffffffffffffffffffffffffffffffffff168473ffffffffffffffffffffffffffffffffffffffff1603610f39576040517fd92e233d00000000000000000000000000000000000000000000000000000000815260040160405180910390fd5b60095f9054906101000a900473ffffffffffffffffffffffffffffffffffffffff1673ffffffffffffffffffffffffffffffffffffffff163373ffffffffffffffffffffffffffffffffffffffff1614610fbf576040517f17fb206600000000000000000000000000000000000000000000000000000000815260040160405180910390fd5b6101f4828290501115610ffe576040517fb5ae13c800000000000000000000000000000000000000000000000000000000815260040160405180910390fd5b5f600a5f8581526020019081526020015f2090505f5f1b815f015403611050576040517f9b35ed3b00000000000000000000000000000000000000000000000000000000815260040160405180910390fd5b806004015f9054906101000a900460ff16611097576040517f433528b600000000000000000000000000000000000000000000000000000000815260040160405180910390fd5b80600101544210806110ac5750806002015442115b156110e3576040517fc279959d00000000000000000000000000000000000000000000000000000000815260040160405180910390fd5b600b5f8581526020019081526020015f205f8673ffffffffffffffffffffffffffffffffffffffff1673ffffffffffffffffffffffffffffffffffffffff1681526020019081526020015f205f9054906101000a900460ff1615611173576040517fddefae2800000000000000000000000000000000000000000000000000000000815260040160405180910390fd5b8060030154600c5f8681526020019081526020015f2054106111c1576040517f303b682f00000000000000000000000000000000000000000000000000000000815260040160405180910390fd5b5f856040516020016111d39190613d4c565b6040516020818303038152906040528051906020012090506112398484808060200260200160405190810160405280939291908181526020018383602002808284375f81840152601f19601f82011690508083019250505050505050835f015483611fdf565b61126f576040517f09bde33900000000000000000000000000000000000000000000000000000000815260040160405180910390fd5b5f600d5490506001600b5f8881526020019081526020015f205f8973ffffffffffffffffffffffffffffffffffffffff1673ffffffffffffffffffffffffffffffffffffffff1681526020019081526020015f205f6101000a81548160ff021916908315150217905550600c5f8781526020019081526020015f205f8154809291906112fa90613d66565b9190505550600d5f815480929190600101919050555085818873ffffffffffffffffffffffffffffffffffffffff167ffb2a8276c788bcdeaec6f4ec55f21fc636460802e63cb7e05337309232a1b90560405160405180910390a461135f8782611ff5565b50505050505050565b5f5f73ffffffffffffffffffffffffffffffffffffffff168273ffffffffffffffffffffffffffffffffffffffff16036113d9575f6040517f89c62b640000000000000000000000000000000000000000000000000000000081526004016113d091906131fb565b60405180910390fd5b60035f8373ffffffffffffffffffffffffffffffffffffffff1673ffffffffffffffffffffffffffffffffffffffff1681526020019081526020015f20549050919050565b611426611d1c565b61142f5f612012565b565b5f600d54905090565b611442611d1c565b5f600a5f8381526020019081526020015f2090505f5f1b815f015403611494576040517f9b35ed3b00000000000000000000000000000000000000000000000000000000815260040160405180910390fd5b806004015f9054906101000a900460ff16156114dc576040517f433528b600000000000000000000000000000000000000000000000000000000815260040160405180910390fd5b80600101544210611519576040517fc24f060d00000000000000000000000000000000000000000000000000000000815260040160405180910390fd5b5f600c5f8481526020019081526020015f20541115611564576040517f6920702800000000000000000000000000000000000000000000000000000000815260040160405180910390fd5b600a5f8381526020019081526020015f205f5f82015f9055600182015f9055600282015f9055600382015f9055600482015f6101000a81549060ff02191690555050817fa61e586bd6a065bde887af9ec4705829557488d3ccdea823ab66aafd7c3aa09960405160405180910390a25050565b5f6115e0611e62565b90508073ffffffffffffffffffffffffffffffffffffffff16611601611b12565b73ffffffffffffffffffffffffffffffffffffffff161461165957806040517f118cdaa700000000000000000000000000000000000000000000000000000000815260040161165091906131fb565b60405180910390fd5b61166281612012565b50565b60095f9054906101000a900473ffffffffffffffffffffffffffffffffffffffff1681565b611692611d1c565b61169a612042565b565b5f60065f9054906101000a900473ffffffffffffffffffffffffffffffffffffffff16905090565b6116cc611d1c565b5f73ffffffffffffffffffffffffffffffffffffffff168173ffffffffffffffffffffffffffffffffffffffff1603611731576040517fd92e233d00000000000000000000000000000000000000000000000000000000815260040160405180910390fd5b8060095f6101000a81548173ffffffffffffffffffffffffffffffffffffffff021916908373ffffffffffffffffffffffffffffffffffffffff1602179055507f09bf35b7806e61e7baf86e6547c4221f69d130ccc0a19215d064685a89464a70816040516117a091906131fb565b60405180910390a150565b6060600180546117ba9061393a565b80601f01602080910402602001604051908101604052809291908181526020018280546117e69061393a565b80156118315780601f1061180857610100808354040283529160200191611831565b820191905f5260205f20905b81548152906001019060200180831161181457829003601f168201915b5050505050905090565b61184d611846611e62565b83836120a5565b5050565b611859611d1c565b5f600a5f8681526020019081526020015f2090505f5f1b815f0154036118ab576040517f9b35ed3b00000000000000000000000000000000000000000000000000000000815260040160405180910390fd5b806001015442106118e8576040517fc24f060d00000000000000000000000000000000000000000000000000000000815260040160405180910390fd5b42831015611922576040517f20f18ff300000000000000000000000000000000000000000000000000000000815260040160405180910390fd5b81831061195b576040517ffece067800000000000000000000000000000000000000000000000000000000815260040160405180910390fd5b6301e13380838361196c9190613997565b11156119a4576040517fa7b3eca400000000000000000000000000000000000000000000000000000000815260040160405180910390fd5b5f5f1b84036119df576040517f85ac2b9900000000000000000000000000000000000000000000000000000000815260040160405180910390fd5b83815f0181905550828160010181905550818160020181905550847f16aecbfe7ebe46edf6ad617df195cbc6f8602da71d91da41b239691f12d43afe858585604051611a2d93929190613dad565b60405180910390a25050505050565b611a47848484610c76565b611a5b611a52611e62565b8585858561220e565b50505050565b60605f611a6d836123ba565b90505f73ffffffffffffffffffffffffffffffffffffffff168173ffffffffffffffffffffffffffffffffffffffff1603611ad4576040517f9430a17e00000000000000000000000000000000000000000000000000000000815260040160405180910390fd5b5f611ade826123f3565b9050611ae86126f1565b81604051602001611afa929190613e42565b60405160208183030381529060405292505050919050565b5f60075f9054906101000a900473ffffffffffffffffffffffffffffffffffffffff16905090565b600c602052805f5260405f205f915090505481565b5f60055f8473ffffffffffffffffffffffffffffffffffffffff1673ffffffffffffffffffffffffffffffffffffffff1681526020019081526020015f205f8373ffffffffffffffffffffffffffffffffffffffff1673ffffffffffffffffffffffffffffffffffffffff1681526020019081526020015f205f9054906101000a900460ff16905092915050565b600b602052815f5260405f20602052805f5260405f205f915091509054906101000a900460ff1681565b611c0f611d1c565b8060075f6101000a81548173ffffffffffffffffffffffffffffffffffffffff021916908373ffffffffffffffffffffffffffffffffffffffff1602179055508073ffffffffffffffffffffffffffffffffffffffff16611c6e61169c565b73ffffffffffffffffffffffffffffffffffffffff167f38d16b8cac22d99fc7c124b9cd0de2d3fa1faef420bfe791d8c362d765e2270060405160405180910390a350565b5f7f01ffc9a7000000000000000000000000000000000000000000000000000000007bffffffffffffffffffffffffffffffffffffffffffffffffffffffff1916827bffffffffffffffffffffffffffffffffffffffffffffffffffffffff1916149050919050565b611d24611e62565b73ffffffffffffffffffffffffffffffffffffffff16611d4261169c565b73ffffffffffffffffffffffffffffffffffffffff1614611da157611d65611e62565b6040517f118cdaa7000000000000000000000000000000000000000000000000000000008152600401611d9891906131fb565b60405180910390fd5b565b5f5f611dae836123ba565b90505f73ffffffffffffffffffffffffffffffffffffffff168173ffffffffffffffffffffffffffffffffffffffff1603611e2057826040517f7e273289000000000000000000000000000000000000000000000000000000008152600401611e17919061362e565b60405180910390fd5b80915050919050565b5f60045f8381526020019081526020015f205f9054906101000a900473ffffffffffffffffffffffffffffffffffffffff169050919050565b5f33905090565b611e768383836001612781565b505050565b5f5f611e86846123ba565b90505f73ffffffffffffffffffffffffffffffffffffffff168173ffffffffffffffffffffffffffffffffffffffff1614158015611ef057505f73ffffffffffffffffffffffffffffffffffffffff168573ffffffffffffffffffffffffffffffffffffffff1614155b15611f27576040517f9cbe235700000000000000000000000000000000000000000000000000000000815260040160405180910390fd5b611f32858585612940565b9150509392505050565b611f44612b4b565b5f600760146101000a81548160ff0219169083151502179055507f5db9ee0a495bf2e6ff9c91a7834c1ba4fdd244a5e8aa4e537bd38aeae4b073aa611f87611e62565b604051611f9491906131fb565b60405180910390a1565b611fa6610ea5565b15611fdd576040517fd93c066500000000000000000000000000000000000000000000000000000000815260040160405180910390fd5b565b5f82611feb8584612b8b565b1490509392505050565b61200e828260405180602001604052805f815250612bdc565b5050565b60075f6101000a81549073ffffffffffffffffffffffffffffffffffffffff021916905561203f81612bff565b50565b61204a611f9e565b6001600760146101000a81548160ff0219169083151502179055507f62e78cea01bee320cd4e420270b5ea74000d11b0c9f74754ebdbfc544b05a25861208e611e62565b60405161209b91906131fb565b60405180910390a1565b5f73ffffffffffffffffffffffffffffffffffffffff168273ffffffffffffffffffffffffffffffffffffffff160361211557816040517f5b08ba1800000000000000000000000000000000000000000000000000000000815260040161210c91906131fb565b60405180910390fd5b8060055f8573ffffffffffffffffffffffffffffffffffffffff1673ffffffffffffffffffffffffffffffffffffffff1681526020019081526020015f205f8473ffffffffffffffffffffffffffffffffffffffff1673ffffffffffffffffffffffffffffffffffffffff1681526020019081526020015f205f6101000a81548160ff0219169083151502179055508173ffffffffffffffffffffffffffffffffffffffff168373ffffffffffffffffffffffffffffffffffffffff167f17307eab39ab6107e8899845ad3d59bd9653f200f220920489ca2b5937696c3183604051612201919061304d565b60405180910390a3505050565b5f8373ffffffffffffffffffffffffffffffffffffffff163b11156123b3578273ffffffffffffffffffffffffffffffffffffffff1663150b7a02868685856040518563ffffffff1660e01b815260040161226c9493929190613ec6565b6020604051808303815f875af19250505080156122a757506040513d601f19601f820116820180604052508101906122a49190613f24565b60015b612328573d805f81146122d5576040519150601f19603f3d011682016040523d82523d5f602084013e6122da565b606091505b505f81510361232057836040517f64a0ae9200000000000000000000000000000000000000000000000000000000815260040161231791906131fb565b60405180910390fd5b805160208201fd5b63150b7a0260e01b7bffffffffffffffffffffffffffffffffffffffffffffffffffffffff1916817bffffffffffffffffffffffffffffffffffffffffffffffffffffffff1916146123b157836040517f64a0ae920000000000000000000000000000000000000000000000000000000081526004016123a891906131fb565b60405180910390fd5b505b5050505050565b5f60025f8381526020019081526020015f205f9054906101000a900473ffffffffffffffffffffffffffffffffffffffff169050919050565b60605f8273ffffffffffffffffffffffffffffffffffffffff165f1b90505f6040518060400160405280601081526020017f303132333435363738396162636465660000000000000000000000000000000081525090505f602a67ffffffffffffffff811115612466576124656136ed565b5b6040519080825280601f01601f1916602001820160405280156124985781602001600182028036833780820191505090505b5090507f3000000000000000000000000000000000000000000000000000000000000000815f815181106124cf576124ce613f4f565b5b60200101907effffffffffffffffffffffffffffffffffffffffffffffffffffffffffffff191690815f1a9053507f78000000000000000000000000000000000000000000000000000000000000008160018151811061253257612531613f4f565b5b60200101907effffffffffffffffffffffffffffffffffffffffffffffffffffffffffffff191690815f1a9053505f5f90505b60148110156126e55782600485600c8461257f9190613f7c565b602081106125905761258f613f4f565b5b1a60f81b7effffffffffffffffffffffffffffffffffffffffffffffffffffffffffffff1916901c60f81c60ff16815181106125cf576125ce613f4f565b5b602001015160f81c60f81b826002836125e89190613faf565b60026125f49190613f7c565b8151811061260557612604613f4f565b5b60200101907effffffffffffffffffffffffffffffffffffffffffffffffffffffffffffff191690815f1a90535082600f60f81b85600c846126479190613f7c565b6020811061265857612657613f4f565b5b1a60f81b1660f81c60ff168151811061267457612673613f4f565b5b602001015160f81c60f81b8260028361268d9190613faf565b60036126999190613f7c565b815181106126aa576126a9613f4f565b5b60200101907effffffffffffffffffffffffffffffffffffffffffffffffffffffffffffff191690815f1a9053508080600101915050612565565b50809350505050919050565b6060600880546127009061393a565b80601f016020809104026020016040519081016040528092919081815260200182805461272c9061393a565b80156127775780601f1061274e57610100808354040283529160200191612777565b820191905f5260205f20905b81548152906001019060200180831161275a57829003601f168201915b5050505050905090565b80806127b957505f73ffffffffffffffffffffffffffffffffffffffff168273ffffffffffffffffffffffffffffffffffffffff1614155b156128eb575f6127c884611da3565b90505f73ffffffffffffffffffffffffffffffffffffffff168373ffffffffffffffffffffffffffffffffffffffff161415801561283257508273ffffffffffffffffffffffffffffffffffffffff168173ffffffffffffffffffffffffffffffffffffffff1614155b801561284557506128438184611b4f565b155b1561288757826040517fa9fbf51f00000000000000000000000000000000000000000000000000000000815260040161287e91906131fb565b60405180910390fd5b81156128e957838573ffffffffffffffffffffffffffffffffffffffff168273ffffffffffffffffffffffffffffffffffffffff167f8c5be1e5ebec7d5bd14f71427d1e84f3dd0314c0f7b2291e5b200ac8c7c3b92560405160405180910390a45b505b8360045f8581526020019081526020015f205f6101000a81548173ffffffffffffffffffffffffffffffffffffffff021916908373ffffffffffffffffffffffffffffffffffffffff16021790555050505050565b5f5f61294b846123ba565b90505f73ffffffffffffffffffffffffffffffffffffffff168373ffffffffffffffffffffffffffffffffffffffff161461298c5761298b818486612cc2565b5b5f73ffffffffffffffffffffffffffffffffffffffff168173ffffffffffffffffffffffffffffffffffffffff1614612a17576129cb5f855f5f612781565b600160035f8373ffffffffffffffffffffffffffffffffffffffff1673ffffffffffffffffffffffffffffffffffffffff1681526020019081526020015f205f82825403925050819055505b5f73ffffffffffffffffffffffffffffffffffffffff168573ffffffffffffffffffffffffffffffffffffffff1614612a9657600160035f8773ffffffffffffffffffffffffffffffffffffffff1673ffffffffffffffffffffffffffffffffffffffff1681526020019081526020015f205f82825401925050819055505b8460025f8681526020019081526020015f205f6101000a81548173ffffffffffffffffffffffffffffffffffffffff021916908373ffffffffffffffffffffffffffffffffffffffff160217905550838573ffffffffffffffffffffffffffffffffffffffff168273ffffffffffffffffffffffffffffffffffffffff167fddf252ad1be2c89b69c2b068fc378daa952ba7f163c4a11628f55a4df523b3ef60405160405180910390a4809150509392505050565b612b53610ea5565b612b89576040517f8dfc202b00000000000000000000000000000000000000000000000000000000815260040160405180910390fd5b565b5f5f8290505f5f90505b8451811015612bd157612bc282868381518110612bb557612bb4613f4f565b5b6020026020010151612d85565b91508080600101915050612b95565b508091505092915050565b612be68383612daf565b612bfa612bf1611e62565b5f85858561220e565b505050565b5f60065f9054906101000a900473ffffffffffffffffffffffffffffffffffffffff1690508160065f6101000a81548173ffffffffffffffffffffffffffffffffffffffff021916908373ffffffffffffffffffffffffffffffffffffffff1602179055508173ffffffffffffffffffffffffffffffffffffffff168173ffffffffffffffffffffffffffffffffffffffff167f8be0079c531659141344cd1fd0a4f28419497f9722a3daafe3b4186f6b6457e060405160405180910390a35050565b612ccd838383612ea2565b612d80575f73ffffffffffffffffffffffffffffffffffffffff168373ffffffffffffffffffffffffffffffffffffffff1603612d4157806040517f7e273289000000000000000000000000000000000000000000000000000000008152600401612d38919061362e565b60405180910390fd5b81816040517f177e802f000000000000000000000000000000000000000000000000000000008152600401612d77929190613ff0565b60405180910390fd5b505050565b5f818310612d9c57612d978284612f62565b612da7565b612da68383612f62565b5b905092915050565b5f73ffffffffffffffffffffffffffffffffffffffff168273ffffffffffffffffffffffffffffffffffffffff1603612e1f575f6040517f64a0ae92000000000000000000000000000000000000000000000000000000008152600401612e1691906131fb565b60405180910390fd5b5f612e2b83835f611e7b565b90505f73ffffffffffffffffffffffffffffffffffffffff168173ffffffffffffffffffffffffffffffffffffffff1614612e9d575f6040517f73c6ac6e000000000000000000000000000000000000000000000000000000008152600401612e9491906131fb565b60405180910390fd5b505050565b5f5f73ffffffffffffffffffffffffffffffffffffffff168373ffffffffffffffffffffffffffffffffffffffff1614158015612f5957508273ffffffffffffffffffffffffffffffffffffffff168473ffffffffffffffffffffffffffffffffffffffff161480612f1a5750612f198484611b4f565b5b80612f5857508273ffffffffffffffffffffffffffffffffffffffff16612f4083611e29565b73ffffffffffffffffffffffffffffffffffffffff16145b5b90509392505050565b5f825f528160205260405f20905092915050565b6040518060a001604052805f81526020015f81526020015f81526020015f81526020015f151581525090565b5f604051905090565b5f5ffd5b5f5ffd5b5f7fffffffff0000000000000000000000000000000000000000000000000000000082169050919050565b612fe781612fb3565b8114612ff1575f5ffd5b50565b5f8135905061300281612fde565b92915050565b5f6020828403121561301d5761301c612fab565b5b5f61302a84828501612ff4565b91505092915050565b5f8115159050919050565b61304781613033565b82525050565b5f6020820190506130605f83018461303e565b92915050565b5f819050919050565b61307881613066565b8114613082575f5ffd5b50565b5f813590506130938161306f565b92915050565b6130a281613033565b81146130ac575f5ffd5b50565b5f813590506130bd81613099565b92915050565b5f5f604083850312156130d9576130d8612fab565b5b5f6130e685828601613085565b92505060206130f7858286016130af565b9150509250929050565b5f81519050919050565b5f82825260208201905092915050565b8281835e5f83830152505050565b5f601f19601f8301169050919050565b5f61314382613101565b61314d818561310b565b935061315d81856020860161311b565b61316681613129565b840191505092915050565b5f6020820190508181035f8301526131898184613139565b905092915050565b5f602082840312156131a6576131a5612fab565b5b5f6131b384828501613085565b91505092915050565b5f73ffffffffffffffffffffffffffffffffffffffff82169050919050565b5f6131e5826131bc565b9050919050565b6131f5816131db565b82525050565b5f60208201905061320e5f8301846131ec565b92915050565b61321d816131db565b8114613227575f5ffd5b50565b5f8135905061323881613214565b92915050565b5f5f6040838503121561325457613253612fab565b5b5f6132618582860161322a565b925050602061327285828601613085565b9150509250929050565b5f819050919050565b61328e8161327c565b82525050565b61329d81613066565b82525050565b5f60a0820190506132b65f830188613285565b6132c36020830187613294565b6132d06040830186613294565b6132dd6060830185613294565b6132ea608083018461303e565b9695505050505050565b6132fd8161327c565b8114613307575f5ffd5b50565b5f81359050613318816132f4565b92915050565b5f5f5f5f5f60a0868803121561333757613336612fab565b5b5f61334488828901613085565b95505060206133558882890161330a565b945050604061336688828901613085565b935050606061337788828901613085565b925050608061338888828901613085565b9150509295509295909350565b5f5f5f606084860312156133ac576133ab612fab565b5b5f6133b98682870161322a565b93505060206133ca8682870161322a565b92505060406133db86828701613085565b9150509250925092565b6133ee8161327c565b82525050565b6133fd81613066565b82525050565b61340c81613033565b82525050565b60a082015f8201516134265f8501826133e5565b50602082015161343960208501826133f4565b50604082015161344c60408501826133f4565b50606082015161345f60608501826133f4565b5060808201516134726080850182613403565b50505050565b5f60a08201905061348b5f830184613412565b92915050565b5f5ffd5b5f5ffd5b5f5ffd5b5f5f83601f8401126134b2576134b1613491565b5b8235905067ffffffffffffffff8111156134cf576134ce613495565b5b6020830191508360018202830111156134eb576134ea613499565b5b9250929050565b5f5f6020838503121561350857613507612fab565b5b5f83013567ffffffffffffffff81111561352557613524612faf565b5b6135318582860161349d565b92509250509250929050565b5f5f83601f84011261355257613551613491565b5b8235905067ffffffffffffffff81111561356f5761356e613495565b5b60208301915083602082028301111561358b5761358a613499565b5b9250929050565b5f5f5f5f606085870312156135aa576135a9612fab565b5b5f6135b78782880161322a565b94505060206135c887828801613085565b935050604085013567ffffffffffffffff8111156135e9576135e8612faf565b5b6135f58782880161353d565b925092505092959194509250565b5f6020828403121561361857613617612fab565b5b5f6136258482850161322a565b91505092915050565b5f6020820190506136415f830184613294565b92915050565b5f5f6040838503121561365d5761365c612fab565b5b5f61366a8582860161322a565b925050602061367b858286016130af565b9150509250929050565b5f5f5f5f6080858703121561369d5761369c612fab565b5b5f6136aa87828801613085565b94505060206136bb8782880161330a565b93505060406136cc87828801613085565b92505060606136dd87828801613085565b91505092959194509250565b5f5ffd5b7f4e487b71000000000000000000000000000000000000000000000000000000005f52604160045260245ffd5b61372382613129565b810181811067ffffffffffffffff82111715613742576137416136ed565b5b80604052505050565b5f613754612fa2565b9050613760828261371a565b919050565b5f67ffffffffffffffff82111561377f5761377e6136ed565b5b61378882613129565b9050602081019050919050565b828183375f83830152505050565b5f6137b56137b084613765565b61374b565b9050828152602081018484840111156137d1576137d06136e9565b5b6137dc848285613795565b509392505050565b5f82601f8301126137f8576137f7613491565b5b81356138088482602086016137a3565b91505092915050565b5f5f5f5f6080858703121561382957613828612fab565b5b5f6138368782880161322a565b94505060206138478782880161322a565b935050604061385887828801613085565b925050606085013567ffffffffffffffff81111561387957613878612faf565b5b613885878288016137e4565b91505092959194509250565b5f5f604083850312156138a7576138a6612fab565b5b5f6138b48582860161322a565b92505060206138c58582860161322a565b9150509250929050565b5f5f604083850312156138e5576138e4612fab565b5b5f6138f285828601613085565b92505060206139038582860161322a565b9150509250929050565b7f4e487b71000000000000000000000000000000000000000000000000000000005f52602260045260245ffd5b5f600282049050600182168061395157607f821691505b6020821081036139645761396361390d565b5b50919050565b7f4e487b71000000000000000000000000000000000000000000000000000000005f52601160045260245ffd5b5f6139a182613066565b91506139ac83613066565b92508282039050818111156139c4576139c361396a565b5b92915050565b5f6080820190506139dd5f830187613285565b6139ea6020830186613294565b6139f76040830185613294565b613a046060830184613294565b95945050505050565b5f606082019050613a205f8301866131ec565b613a2d6020830185613294565b613a3a60408301846131ec565b949350505050565b5f82905092915050565b5f819050815f5260205f209050919050565b5f6020601f8301049050919050565b5f82821b905092915050565b5f60088302613aa87fffffffffffffffffffffffffffffffffffffffffffffffffffffffffffffffff82613a6d565b613ab28683613a6d565b95508019841693508086168417925050509392505050565b5f819050919050565b5f613aed613ae8613ae384613066565b613aca565b613066565b9050919050565b5f819050919050565b613b0683613ad3565b613b1a613b1282613af4565b848454613a79565b825550505050565b5f5f905090565b613b31613b22565b613b3c818484613afd565b505050565b5b81811015613b5f57613b545f82613b29565b600181019050613b42565b5050565b601f821115613ba457613b7581613a4c565b613b7e84613a5e565b81016020851015613b8d578190505b613ba1613b9985613a5e565b830182613b41565b50505b505050565b5f82821c905092915050565b5f613bc45f1984600802613ba9565b1980831691505092915050565b5f613bdc8383613bb5565b9150826002028217905092915050565b613bf68383613a42565b67ffffffffffffffff811115613c0f57613c0e6136ed565b5b613c19825461393a565b613c24828285613b63565b5f601f831160018114613c51575f8415613c3f578287013590505b613c498582613bd1565b865550613cb0565b601f198416613c5f86613a4c565b5f5b82811015613c8657848901358255600182019150602085019450602081019050613c61565b86831015613ca35784890135613c9f601f891682613bb5565b8355505b6001600288020188555050505b50505050505050565b5f613cc4838561310b565b9350613cd1838584613795565b613cda83613129565b840190509392505050565b5f6020820190508181035f830152613cfe818486613cb9565b90509392505050565b5f8160601b9050919050565b5f613d1d82613d07565b9050919050565b5f613d2e82613d13565b9050919050565b613d46613d41826131db565b613d24565b82525050565b5f613d578284613d35565b60148201915081905092915050565b5f613d7082613066565b91507fffffffffffffffffffffffffffffffffffffffffffffffffffffffffffffffff8203613da257613da161396a565b5b600182019050919050565b5f606082019050613dc05f830186613285565b613dcd6020830185613294565b613dda6040830184613294565b949350505050565b5f81905092915050565b5f613df682613101565b613e008185613de2565b9350613e1081856020860161311b565b80840191505092915050565b7f2e6a736f6e000000000000000000000000000000000000000000000000000000815250565b5f613e4d8285613dec565b9150613e598284613dec565b9150613e6482613e1c565b6005820191508190509392505050565b5f81519050919050565b5f82825260208201905092915050565b5f613e9882613e74565b613ea28185613e7e565b9350613eb281856020860161311b565b613ebb81613129565b840191505092915050565b5f608082019050613ed95f8301876131ec565b613ee660208301866131ec565b613ef36040830185613294565b8181036060830152613f058184613e8e565b905095945050505050565b5f81519050613f1e81612fde565b92915050565b5f60208284031215613f3957613f38612fab565b5b5f613f4684828501613f10565b91505092915050565b7f4e487b71000000000000000000000000000000000000000000000000000000005f52603260045260245ffd5b5f613f8682613066565b9150613f9183613066565b9250828201905080821115613fa957613fa861396a565b5b92915050565b5f613fb982613066565b9150613fc483613066565b9250828202613fd281613066565b91508282048414831517613fe957613fe861396a565b5b5092915050565b5f6040820190506140035f8301856131ec565b6140106020830184613294565b939250505056fea2646970667358221220145c4f9bf5c8b98e332e883e9eb3e450696d38d28f5635e9068d99a3ff54e2e864736f6c634300081e0033",
    "linkReferences": {}
  },
  "methodIdentifiers": {
    "acceptOwnership()": "79ba5097",
    "approve(address,uint256)": "095ea7b3",
    "balanceOf(address)": "70a08231",
    "campaignMintCount(uint256)": "e8149106",
    "campaigns(uint256)": "141961bc",
    "canMint(address,uint256)": "0d5e34a4",
    "createCampaign(uint256,bytes32,uint256,uint256,uint256)": "15b3fc59",
    "deleteCampaign(uint256)": "75970193",
    "getApproved(uint256)": "081812fc",
    "getCampaign(uint256)": "5598f8cc",
    "hasMintedInCampaign(uint256,address)": "f0ec3d3a",
    "isApprovedForAll(address,address)": "e985e9c5",
    "mint(address,uint256,bytes32[])": "641ce140",
    "name()": "06fdde03",
    "nextTokenId()": "75794a3c",
    "owner()": "8da5cb5b",
    "ownerOf(uint256)": "6352211e",
    "pause()": "8456cb59",
    "paused()": "5c975abb",
    "pendingOwner()": "e30c3978",
    "relayer()": "8406c079",
    "renounceOwnership()": "715018a6",
    "safeTransferFrom(address,address,uint256)": "42842e0e",
    "safeTransferFrom(address,address,uint256,bytes)": "b88d4fde",
    "setApprovalForAll(address,bool)": "a22cb465",
    "setBaseURI(string)": "55f804b3",
    "setCampaignActiveStatus(uint256,bool)": "02530b85",
    "supportsInterface(bytes4)": "01ffc9a7",
    "symbol()": "95d89b41",
    "tokenURI(uint256)": "c87b56dd",
    "transferFrom(address,address,uint256)": "23b872dd",
    "transferOwnership(address)": "f2fde38b",
    "unpause()": "3f4ba83a",
    "updateCampaignBeforeStart(uint256,bytes32,uint256,uint256)": "b4e02933",
    "updateRelayer(address)": "8f83ab13"
  },
  "id": 44
}